{
  "abi": [
    {
      "anonymous": false,
      "inputs": [
        {
          "indexed": true,
          "internalType": "address",
          "name": "user",
          "type": "address"
        },
        {
          "indexed": true,
          "internalType": "bytes32",
          "name": "spec",
          "type": "bytes32"
        },
        {
          "indexed": true,
          "internalType": "bytes32",
          "name": "uriType",
          "type": "bytes32"
        },
        {
          "indexed": false,
          "internalType": "string",
          "name": "uri",
          "type": "string"
        },
        {
          "indexed": false,
          "internalType": "uint256",
          "name": "burn",
          "type": "uint256"
        }
      ],
      "name": "Publication",
      "type": "event"
    },
    {
      "inputs": [
        {
          "internalType": "bytes32",
          "name": "spec",
          "type": "bytes32"
        },
        {
          "internalType": "bytes32",
          "name": "uriType",
          "type": "bytes32"
        },
        {
          "internalType": "string",
          "name": "uri",
          "type": "string"
        }
      ],
      "name": "publish",
      "outputs": [],
      "stateMutability": "payable",
      "type": "function"
    }
  ],
  "bytecode": {
    "object": "0x608060405234801561001057600080fd5b50610174806100206000396000f3fe60806040526004361061001e5760003560e01c80635bf7253d14610023575b600080fd5b610036610031366004610085565b610038565b005b8284336001600160a01b03167f26ee36eba1f01d1f034088accc4394014805d4f386978b8c4db8cbc85bde2a4685853460405161007793929190610105565b60405180910390a450505050565b6000806000806060858703121561009b57600080fd5b8435935060208501359250604085013567ffffffffffffffff808211156100c157600080fd5b818701915087601f8301126100d557600080fd5b8135818111156100e457600080fd5b8860208285010111156100f657600080fd5b95989497505060200194505050565b604081528260408201528284606083013760006060848301015260006060601f19601f860116830101905082602083015294935050505056fea264697066735822122036ff67a2b3c2ec9e23a620c6b3a6a04b29cf3c1e4a09bfe740f6bfb2b86c50d864736f6c63430008140033",
    "linkReferences": {}
  },
  "methodIdentifiers": {
    "publish(bytes32,bytes32,string)": "5bf7253d"
  },
  "id": 21
}